{
  "_format": "hh-sol-artifact-1",
  "contractName": "RockPaperScissors",
  "sourceName": "contracts/RockPaperScissors.sol",
  "abi": [
    {
      "inputs": [
        {
          "internalType": "uint256",
          "name": "_subscriptionId",
          "type": "uint256"
        }
      ],
      "stateMutability": "nonpayable",
      "type": "constructor"
    },
    {
      "inputs": [
        {
          "internalType": "address",
          "name": "have",
          "type": "address"
        },
        {
          "internalType": "address",
          "name": "want",
          "type": "address"
        }
      ],
      "name": "OnlyCoordinatorCanFulfill",
      "type": "error"
    },
    {
      "inputs": [
        {
          "internalType": "address",
          "name": "have",
          "type": "address"
        },
        {
          "internalType": "address",
          "name": "owner",
          "type": "address"
        },
        {
          "internalType": "address",
          "name": "coordinator",
          "type": "address"
        }
      ],
      "name": "OnlyOwnerOrCoordinator",
      "type": "error"
    },
    {
      "inputs": [],
      "name": "ReentrancyGuardReentrantCall",
      "type": "error"
    },
    {
      "inputs": [],
      "name": "ZeroAddress",
      "type": "error"
    },
    {
      "anonymous": false,
      "inputs": [
        {
          "indexed": false,
          "internalType": "address",
          "name": "vrfCoordinator",
          "type": "address"
        }
      ],
      "name": "CoordinatorSet",
      "type": "event"
    },
    {
      "anonymous": false,
      "inputs": [
        {
          "indexed": false,
          "internalType": "uint256",
          "name": "gameId",
          "type": "uint256"
        },
        {
          "indexed": false,
          "internalType": "address",
          "name": "player1",
          "type": "address"
        }
      ],
      "name": "GameCreated",
      "type": "event"
    },
    {
      "anonymous": false,
      "inputs": [
        {
          "indexed": false,
          "internalType": "uint256",
          "name": "gameId",
          "type": "uint256"
        },
        {
          "indexed": false,
          "internalType": "address",
          "name": "winner",
          "type": "address"
        }
      ],
      "name": "GameResolved",
      "type": "event"
    },
    {
      "anonymous": false,
      "inputs": [
        {
          "indexed": false,
          "internalType": "uint256",
          "name": "gameId",
          "type": "uint256"
        }
      ],
      "name": "MovesSubmitted",
      "type": "event"
    },
    {
      "anonymous": false,
      "inputs": [
        {
          "indexed": true,
          "internalType": "address",
          "name": "from",
          "type": "address"
        },
        {
          "indexed": true,
          "internalType": "address",
          "name": "to",
          "type": "address"
        }
      ],
      "name": "OwnershipTransferRequested",
      "type": "event"
    },
    {
      "anonymous": false,
      "inputs": [
        {
          "indexed": true,
          "internalType": "address",
          "name": "from",
          "type": "address"
        },
        {
          "indexed": true,
          "internalType": "address",
          "name": "to",
          "type": "address"
        }
      ],
      "name": "OwnershipTransferred",
      "type": "event"
    },
    {
      "anonymous": false,
      "inputs": [
        {
          "indexed": false,
          "internalType": "uint256",
          "name": "gameId",
          "type": "uint256"
        },
        {
          "indexed": false,
          "internalType": "address",
          "name": "player2",
          "type": "address"
        }
      ],
      "name": "PlayerJoined",
      "type": "event"
    },
    {
      "inputs": [],
      "name": "PAYOUT_AMOUNT",
      "outputs": [
        {
          "internalType": "uint256",
          "name": "",
          "type": "uint256"
        }
      ],
      "stateMutability": "view",
      "type": "function"
    },
    {
      "inputs": [],
      "name": "WAGER_AMOUNT",
      "outputs": [
        {
          "internalType": "uint256",
          "name": "",
          "type": "uint256"
        }
      ],
      "stateMutability": "view",
      "type": "function"
    },
    {
      "inputs": [],
      "name": "acceptOwnership",
      "outputs": [],
      "stateMutability": "nonpayable",
      "type": "function"
    },
    {
      "inputs": [],
      "name": "createGame",
      "outputs": [],
      "stateMutability": "payable",
      "type": "function"
    },
    {
      "inputs": [],
      "name": "gameCounter",
      "outputs": [
        {
          "internalType": "uint256",
          "name": "",
          "type": "uint256"
        }
      ],
      "stateMutability": "view",
      "type": "function"
    },
    {
      "inputs": [
        {
          "internalType": "uint256",
          "name": "",
          "type": "uint256"
        }
      ],
      "name": "games",
      "outputs": [
        {
          "internalType": "address",
          "name": "player1",
          "type": "address"
        },
        {
          "internalType": "address",
          "name": "player2",
          "type": "address"
        },
        {
          "internalType": "enum RockPaperScissors.Move",
          "name": "move1",
          "type": "uint8"
        },
        {
          "internalType": "enum RockPaperScissors.Move",
          "name": "move2",
          "type": "uint8"
        },
        {
          "internalType": "enum RockPaperScissors.GameState",
          "name": "state",
          "type": "uint8"
        },
        {
          "internalType": "uint256",
          "name": "randomRequestId",
          "type": "uint256"
        }
      ],
      "stateMutability": "view",
      "type": "function"
    },
    {
      "inputs": [
        {
          "internalType": "address",
          "name": "",
          "type": "address"
        }
      ],
      "name": "gamesPlayed",
      "outputs": [
        {
          "internalType": "uint256",
          "name": "",
          "type": "uint256"
        }
      ],
      "stateMutability": "view",
      "type": "function"
    },
    {
      "inputs": [
        {
          "internalType": "address",
          "name": "",
          "type": "address"
        }
      ],
      "name": "gamesWon",
      "outputs": [
        {
          "internalType": "uint256",
          "name": "",
          "type": "uint256"
        }
      ],
      "stateMutability": "view",
      "type": "function"
    },
    {
      "inputs": [
        {
          "internalType": "uint256",
          "name": "gameId",
          "type": "uint256"
        }
      ],
      "name": "getGame",
      "outputs": [
        {
          "internalType": "address",
          "name": "player1",
          "type": "address"
        },
        {
          "internalType": "address",
          "name": "player2",
          "type": "address"
        },
        {
          "internalType": "enum RockPaperScissors.Move",
          "name": "move1",
          "type": "uint8"
        },
        {
          "internalType": "enum RockPaperScissors.Move",
          "name": "move2",
          "type": "uint8"
        },
        {
          "internalType": "enum RockPaperScissors.GameState",
          "name": "state",
          "type": "uint8"
        },
        {
          "internalType": "uint256",
          "name": "randomRequestId",
          "type": "uint256"
        }
      ],
      "stateMutability": "view",
      "type": "function"
    },
    {
      "inputs": [
        {
          "internalType": "address",
          "name": "player",
          "type": "address"
        },
        {
          "internalType": "uint256",
          "name": "startId",
          "type": "uint256"
        },
        {
          "internalType": "uint256",
          "name": "limit",
          "type": "uint256"
        }
      ],
      "name": "getGameHistory",
      "outputs": [
        {
          "components": [
            {
              "internalType": "address",
              "name": "player1",
              "type": "address"
            },
            {
              "internalType": "address",
              "name": "player2",
              "type": "address"
            },
            {
              "internalType": "enum RockPaperScissors.Move",
              "name": "move1",
              "type": "uint8"
            },
            {
              "internalType": "enum RockPaperScissors.Move",
              "name": "move2",
              "type": "uint8"
            },
            {
              "internalType": "enum RockPaperScissors.GameState",
              "name": "state",
              "type": "uint8"
            },
            {
              "internalType": "uint256",
              "name": "randomRequestId",
              "type": "uint256"
            }
          ],
          "internalType": "struct RockPaperScissors.Game[]",
          "name": "",
          "type": "tuple[]"
        }
      ],
      "stateMutability": "view",
      "type": "function"
    },
    {
      "inputs": [
        {
          "internalType": "uint256",
          "name": "gameId",
          "type": "uint256"
        }
      ],
      "name": "joinGame",
      "outputs": [],
      "stateMutability": "payable",
      "type": "function"
    },
    {
      "inputs": [
        {
          "internalType": "uint256",
          "name": "gameId",
          "type": "uint256"
        },
        {
          "internalType": "enum RockPaperScissors.Move",
          "name": "move_",
          "type": "uint8"
        }
      ],
      "name": "makeMove",
      "outputs": [],
      "stateMutability": "nonpayable",
      "type": "function"
    },
    {
      "inputs": [],
      "name": "owner",
      "outputs": [
        {
          "internalType": "address",
          "name": "",
          "type": "address"
        }
      ],
      "stateMutability": "view",
      "type": "function"
    },
    {
      "inputs": [
        {
          "internalType": "uint256",
          "name": "requestId",
          "type": "uint256"
        },
        {
          "internalType": "uint256[]",
          "name": "randomWords",
          "type": "uint256[]"
        }
      ],
      "name": "rawFulfillRandomWords",
      "outputs": [],
      "stateMutability": "nonpayable",
      "type": "function"
    },
    {
      "inputs": [
        {
          "internalType": "uint256",
          "name": "",
          "type": "uint256"
        }
      ],
      "name": "requestIdToGameId",
      "outputs": [
        {
          "internalType": "uint256",
          "name": "",
          "type": "uint256"
        }
      ],
      "stateMutability": "view",
      "type": "function"
    },
    {
      "inputs": [],
      "name": "s_vrfCoordinator",
      "outputs": [
        {
          "internalType": "contract IVRFCoordinatorV2Plus",
          "name": "",
          "type": "address"
        }
      ],
      "stateMutability": "view",
      "type": "function"
    },
    {
      "inputs": [
        {
          "internalType": "address",
          "name": "_vrfCoordinator",
          "type": "address"
        }
      ],
      "name": "setCoordinator",
      "outputs": [],
      "stateMutability": "nonpayable",
      "type": "function"
    },
    {
      "inputs": [
        {
          "internalType": "address",
          "name": "to",
          "type": "address"
        }
      ],
      "name": "transferOwnership",
      "outputs": [],
      "stateMutability": "nonpayable",
      "type": "function"
    },
    {
      "inputs": [],
      "name": "withdrawLink",
      "outputs": [],
      "stateMutability": "nonpayable",
      "type": "function"
    }
  ],
  "bytecode": "0x6080604052600580546001600160a01b0319908116735c210ef41cd1a72de73bf76ec39637bb0d3d7bee1790915560068054909116730b9d5d9136855f6fec3c0993fee6e9ce8a2978461790557fc799bd1e3bd4d1a41cd4968997a4e03dfd2a3c7c04b695881138580163f428876008553480156200007d57600080fd5b5060405162001bb738038062001bb7833981016040819052620000a0916200024f565b600554600160009081556001600160a01b039091169033908190816200010d5760405162461bcd60e51b815260206004820152601860248201527f43616e6e6f7420736574206f776e657220746f207a65726f000000000000000060448201526064015b60405180910390fd5b600180546001600160a01b0319166001600160a01b038481169190911790915581161562000140576200014081620001a3565b5050506001600160a01b0381166200016b5760405163d92e233d60e01b815260040160405180910390fd5b600380546001600160a01b03199081166001600160a01b03938416179091556005546004805491909316911617905560075562000269565b336001600160a01b03821603620001fd5760405162461bcd60e51b815260206004820152601760248201527f43616e6e6f74207472616e7366657220746f2073656c66000000000000000000604482015260640162000104565b600280546001600160a01b0319166001600160a01b03838116918217909255600154604051919216907fed8889f560326eb138920d842192f0eb3dd22b4f139c87a2c57538e05bae127890600090a350565b6000602082840312156200026257600080fd5b5051919050565b61193e80620002796000396000f3fe6080604052600436106101145760003560e01c80637fd6f7c4116100a0578063a2f77bcc11610064578063a2f77bcc14610344578063cb910bda146103af578063efaa55a0146103c8578063f2fde38b146103db578063f416a09f146103fb57600080fd5b80637fd6f7c41461029d5780638da5cb5b146102bd5780638dc654a2146102ef5780638ea98117146103045780639eccacf61461032457600080fd5b80632e0be39a116100e75780632e0be39a146102105780635940db6d1461022657806370180bc1146102535780637255d7291461028057806379ba50971461028857600080fd5b80630386a7e014610119578063117a5b90146101455780631fa072db146101c15780631fe543e3146101ee575b600080fd5b34801561012557600080fd5b50610132642e90edd00081565b6040519081526020015b60405180910390f35b34801561015157600080fd5b506101af610160366004611576565b6009602052600090815260409020805460018201546002909201546001600160a01b03918216929182169160ff600160a01b8204811692600160a81b8304821692600160b01b90049091169086565b60405161013c969594939291906115c9565b3480156101cd57600080fd5b506101326101dc366004611576565b600d6020526000908152604090205481565b3480156101fa57600080fd5b5061020e610209366004611619565b610428565b005b34801561021c57600080fd5b50610132600c5481565b34801561023257600080fd5b506102466102413660046116b4565b61047d565b60405161013c91906116e7565b34801561025f57600080fd5b5061013261026e366004611788565b600b6020526000908152604090205481565b61020e6106d7565b34801561029457600080fd5b5061020e6108b3565b3480156102a957600080fd5b5061020e6102b83660046117aa565b610961565b3480156102c957600080fd5b506001546001600160a01b03165b6040516001600160a01b03909116815260200161013c565b3480156102fb57600080fd5b5061020e610c33565b34801561031057600080fd5b5061020e61031f366004611788565b610d66565b34801561033057600080fd5b506003546102d7906001600160a01b031681565b34801561035057600080fd5b506101af61035f366004611576565b6000908152600960205260409020805460018201546002909201546001600160a01b03918216939183169260ff600160a01b8204811693600160a81b8304821693600160b01b9093049091169190565b3480156103bb57600080fd5b5061013264174876e80081565b61020e6103d6366004611576565b610e58565b3480156103e757600080fd5b5061020e6103f6366004611788565b61104d565b34801561040757600080fd5b50610132610416366004611788565b600a6020526000908152604090205481565b6003546001600160a01b0316331461046d5760035460405163073e64fd60e21b81523360048201526001600160a01b0390911660248201526044015b60405180910390fd5b61047883838361105e565b505050565b606060328211156104c15760405162461bcd60e51b815260206004820152600e60248201526d098d2dad2e840e8dede40d0d2ced60931b6044820152606401610464565b60008267ffffffffffffffff8111156104dc576104dc6117de565b60405190808252806020026020018201604052801561054657816020015b6105336040805160c081018252600080825260208201819052909182019081526020016000815260200160008152602001600081525090565b8152602001906001900390816104fa5790505b5090506000845b600c54811115801561055e57508482105b156106cc576000818152600960209081526040808320815160c08101835281546001600160a01b039081168252600183015490811694820194909452929091830190600160a01b900460ff1660038111156105bb576105bb61158f565b60038111156105cc576105cc61158f565b81526020016001820160159054906101000a900460ff1660038111156105f4576105f461158f565b60038111156106055761060561158f565b81526020016001820160169054906101000a900460ff16600281111561062d5761062d61158f565b600281111561063e5761063e61158f565b81526020016002820154815250509050876001600160a01b031681600001516001600160a01b031614806106875750876001600160a01b031681602001516001600160a01b0316145b156106b9578084848151811061069f5761069f6117f4565b602002602001018190525082806106b59061180a565b9350505b50806106c48161180a565b91505061054d565b508152949350505050565b6106df6110f9565b64174876e800341461072c5760405162461bcd60e51b8152602060048201526016602482015275125b98dbdc9c9958dd081dd859d95c88185b5bdd5b9d60521b6044820152606401610464565b600c805490600061073c8361180a565b90915550506040805160c08101825233815260006020808301828152838501838152606085018490526080850184905260a08501849052600c548452600990925293909120825181546001600160a01b03199081166001600160a01b0392831617835594516001830180549687169190921690811782559251939491939290916001600160a81b03191617600160a01b8360038111156107de576107de61158f565b0217905550606082015160018201805460ff60a81b1916600160a81b83600381111561080c5761080c61158f565b0217905550608082015160018201805460ff60b01b1916600160b01b83600281111561083a5761083a61158f565b021790555060a09190910151600290910155336000908152600b602052604081208054916108678361180a565b9091555050600c54604080519182523360208301527fc3e0f84839dc888c892a013d10c8f9d6dc05a21a879d0ce468ca558013e9121c910160405180910390a16108b16001600055565b565b6002546001600160a01b031633146109065760405162461bcd60e51b815260206004820152601660248201527526bab9ba10313290383937b837b9b2b21037bbb732b960511b6044820152606401610464565b600180546001600160a01b0319808216339081179093556002805490911690556040516001600160a01b03909116919082907f8be0079c531659141344cd1fd0a4f28419497f9722a3daafe3b4186f6b6457e090600090a350565b6109696110f9565b6000828152600960205260409020600182600381111561098b5761098b61158f565b101580156109ab575060038260038111156109a8576109a861158f565b11155b6109e65760405162461bcd60e51b815260206004820152600c60248201526b496e76616c6964206d6f766560a01b6044820152606401610464565b60006001820154600160b01b900460ff166002811115610a0857610a0861158f565b14610a485760405162461bcd60e51b815260206004820152601060248201526f47616d65206e6f742070656e64696e6760801b6044820152606401610464565b80546001600160a01b031633148080610a6d575060018201546001600160a01b031633145b610aa85760405162461bcd60e51b815260206004820152600c60248201526b2737ba103090383630bcb2b960a11b6044820152606401610464565b808015610ad4575060006001830154600160a01b900460ff166003811115610ad257610ad261158f565b145b80610b07575080158015610b07575060006001830154600160a81b900460ff166003811115610b0557610b0561158f565b145b610b475760405162461bcd60e51b81526020600482015260116024820152704d6f766520616c7265616479206d61646560781b6044820152606401610464565b8015610b7e5760018201805484919060ff60a01b1916600160a01b836003811115610b7457610b7461158f565b0217905550610c23565b60018201805484919060ff60a81b1916600160a81b836003811115610ba557610ba561158f565b021790555060006001830154600160a01b900460ff166003811115610bcc57610bcc61158f565b14610c235760018201805460ff60b01b1916600160b01b179055610bef84611123565b6040518481527fd29757087cf857e5fb3178239b074d6cd96d3f64a5bb1f6c632eecbcba4a48c69060200160405180910390a15b5050610c2f6001600055565b5050565b610c3b611203565b6006546040516370a0823160e01b81523060048201526001600160a01b0390911690819063a9059cbb90339083906370a0823190602401602060405180830381865afa158015610c8f573d6000803e3d6000fd5b505050506040513d601f19601f82011682018060405250810190610cb39190611831565b6040516001600160e01b031960e085901b1681526001600160a01b03909216600483015260248201526044016020604051808303816000875af1158015610cfe573d6000803e3d6000fd5b505050506040513d601f19601f82011682018060405250810190610d22919061184a565b610d635760405162461bcd60e51b81526020600482015260126024820152712ab730b13632903a37903a3930b739b332b960711b6044820152606401610464565b50565b6001546001600160a01b03163314801590610d8c57506003546001600160a01b03163314155b15610ddd5733610da46001546001600160a01b031690565b60035460405163061db9c160e01b81526001600160a01b0393841660048201529183166024830152919091166044820152606401610464565b6001600160a01b038116610e045760405163d92e233d60e01b815260040160405180910390fd5b600380546001600160a01b0319166001600160a01b0383169081179091556040519081527fd1a6a14209a385a964d036e404cb5cfb71f4000cdb03c9366292430787261be69060200160405180910390a150565b610e606110f9565b60008181526009602052604090203464174876e80014610ebb5760405162461bcd60e51b8152602060048201526016602482015275125b98dbdc9c9958dd081dd859d95c88185b5bdd5b9d60521b6044820152606401610464565b60006001820154600160b01b900460ff166002811115610edd57610edd61158f565b14610f1d5760405162461bcd60e51b815260206004820152601060248201526f47616d65206e6f742070656e64696e6760801b6044820152606401610464565b80546001600160a01b031615801590610f41575060018101546001600160a01b0316155b610f825760405162461bcd60e51b8152602060048201526012602482015271496e76616c69642067616d6520737461746560701b6044820152606401610464565b8054336001600160a01b0390911603610fd45760405162461bcd60e51b815260206004820152601460248201527343616e6e6f74206a6f696e206f776e2067616d6560601b6044820152606401610464565b6001810180546001600160a01b031916339081179091556000908152600b602052604081208054916110058361180a565b9091555050604080518381523360208201527f87969bc7faf902221a147b95ceba76e011c5efb0339a0a8ee7a2bb82d9cfbbd6910160405180910390a150610d636001600055565b611055611203565b610d6381611256565b6000838152600d60209081526040808320548084526009909252909120600180820154600160b01b900460ff16600281111561109c5761109c61158f565b146110e95760405162461bcd60e51b815260206004820152601d60248201527f47616d65206e6f7420726561647920666f72207265736f6c7574696f6e0000006044820152606401610464565b6110f282611300565b5050505050565b60026000540361111c57604051633ee5aeb560e01b815260040160405180910390fd5b6002600055565b600380546040805160c081018252600854815260075460208083019190915281830194909452620186a060608201526001608082015281519384018252600080855260a08201949094529051634d8e1c2f60e11b81526001600160a01b0390921691639b1c385e916111979160040161186c565b6020604051808303816000875af11580156111b6573d6000803e3d6000fd5b505050506040513d601f19601f820116820180604052508101906111da9190611831565b6000818152600d6020908152604080832086905594825260099052929092206002019190915550565b6001546001600160a01b031633146108b15760405162461bcd60e51b815260206004820152601660248201527527b7363c9031b0b63630b1363290313c9037bbb732b960511b6044820152606401610464565b336001600160a01b038216036112ae5760405162461bcd60e51b815260206004820152601760248201527f43616e6e6f74207472616e7366657220746f2073656c660000000000000000006044820152606401610464565b600280546001600160a01b0319166001600160a01b03838116918217909255600154604051919216907fed8889f560326eb138920d842192f0eb3dd22b4f139c87a2c57538e05bae127890600090a350565b600081815260096020526040812060018101805460ff60b01b198116600160b11b179182905582549293926113579260ff600160a01b8204811693600160a81b90920416916001600160a01b03908116911661148a565b90506001600160a01b0381166113e35781546040516001600160a01b039091169060009064174876e8009082818181858883f193505050501580156113a0573d6000803e3d6000fd5b5060018201546040516001600160a01b039091169060009064174876e8009082818181858883f193505050501580156113dd573d6000803e3d6000fd5b50611444565b6040516001600160a01b03821690600090642e90edd0009082818181858883f19350505050158015611419573d6000803e3d6000fd5b506001600160a01b0381166000908152600a6020526040812080549161143e8361180a565b91905055505b604080518481526001600160a01b03831660208201527fe1bef002fde33ebfa1c25a643ad667aa6dc80f7c8efb4b4161991251f8b4563a910160405180910390a1505050565b600083600381111561149e5761149e61158f565b8560038111156114b0576114b061158f565b036114bd5750600061156e565b60018560038111156114d1576114d161158f565b1480156114ef575060038460038111156114ed576114ed61158f565b145b80611527575060028560038111156115095761150961158f565b148015611527575060018460038111156115255761152561158f565b145b8061155f575060038560038111156115415761154161158f565b14801561155f5750600284600381111561155d5761155d61158f565b145b1561156b57508161156e565b50805b949350505050565b60006020828403121561158857600080fd5b5035919050565b634e487b7160e01b600052602160045260246000fd5b600481106115b5576115b561158f565b9052565b600381106115b5576115b561158f565b6001600160a01b0387811682528616602082015260c081016115ee60408301876115a5565b6115fb60608301866115a5565b61160860808301856115b9565b8260a0830152979650505050505050565b60008060006040848603121561162e57600080fd5b83359250602084013567ffffffffffffffff8082111561164d57600080fd5b818601915086601f83011261166157600080fd5b81358181111561167057600080fd5b8760208260051b850101111561168557600080fd5b6020830194508093505050509250925092565b80356001600160a01b03811681146116af57600080fd5b919050565b6000806000606084860312156116c957600080fd5b6116d284611698565b95602085013595506040909401359392505050565b602080825282518282018190526000919060409081850190868401855b8281101561177b57815180516001600160a01b03908116865287820151168786015285810151611736878701826115a5565b50606080820151611749828801826115a5565b505060808082015161175d828801826115b9565b505060a0908101519085015260c09093019290850190600101611704565b5091979650505050505050565b60006020828403121561179a57600080fd5b6117a382611698565b9392505050565b600080604083850312156117bd57600080fd5b823591506020830135600481106117d357600080fd5b809150509250929050565b634e487b7160e01b600052604160045260246000fd5b634e487b7160e01b600052603260045260246000fd5b60006001820161182a57634e487b7160e01b600052601160045260246000fd5b5060010190565b60006020828403121561184357600080fd5b5051919050565b60006020828403121561185c57600080fd5b815180151581146117a357600080fd5b6000602080835283518184015280840151604084015261ffff6040850151166060840152606084015163ffffffff80821660808601528060808701511660a0860152505060a084015160c08085015280518060e086015260005b818110156118e357828101840151868201610100015283016118c6565b506101009250600083828701015282601f19601f83011686010193505050509291505056fea2646970667358221220dc1365ecd0a538ad865eccc4e78460eab5824d867e3ef3ce319df1638166e7fc64736f6c63430008140033",
  "linkReferences": {},
  "deployedLinkReferences": {}
}