{
  "_format": "hh-sol-artifact-1",
  "contractName": "RockPaperScissors",
  "sourceName": "contracts/RockPaperScissors.sol",
  "abi": [
    {
      "inputs": [
        {
          "internalType": "uint256",
          "name": "_subscriptionId",
          "type": "uint256"
        }
      ],
      "stateMutability": "nonpayable",
      "type": "constructor"
    },
    {
      "inputs": [
        {
          "internalType": "address",
          "name": "have",
          "type": "address"
        },
        {
          "internalType": "address",
          "name": "want",
          "type": "address"
        }
      ],
      "name": "OnlyCoordinatorCanFulfill",
      "type": "error"
    },
    {
      "inputs": [
        {
          "internalType": "address",
          "name": "have",
          "type": "address"
        },
        {
          "internalType": "address",
          "name": "owner",
          "type": "address"
        },
        {
          "internalType": "address",
          "name": "coordinator",
          "type": "address"
        }
      ],
      "name": "OnlyOwnerOrCoordinator",
      "type": "error"
    },
    {
      "inputs": [],
      "name": "ReentrancyGuardReentrantCall",
      "type": "error"
    },
    {
      "inputs": [],
      "name": "ZeroAddress",
      "type": "error"
    },
    {
      "anonymous": false,
      "inputs": [
        {
          "indexed": false,
          "internalType": "address",
          "name": "vrfCoordinator",
          "type": "address"
        }
      ],
      "name": "CoordinatorSet",
      "type": "event"
    },
    {
      "anonymous": false,
      "inputs": [
        {
          "indexed": false,
          "internalType": "uint256",
          "name": "gameId",
          "type": "uint256"
        },
        {
          "indexed": false,
          "internalType": "address",
          "name": "player1",
          "type": "address"
        }
      ],
      "name": "GameCreated",
      "type": "event"
    },
    {
      "anonymous": false,
      "inputs": [
        {
          "indexed": false,
          "internalType": "uint256",
          "name": "gameId",
          "type": "uint256"
        },
        {
          "indexed": false,
          "internalType": "address",
          "name": "winner",
          "type": "address"
        }
      ],
      "name": "GameResolved",
      "type": "event"
    },
    {
      "anonymous": false,
      "inputs": [
        {
          "indexed": false,
          "internalType": "uint256",
          "name": "gameId",
          "type": "uint256"
        }
      ],
      "name": "MovesSubmitted",
      "type": "event"
    },
    {
      "anonymous": false,
      "inputs": [
        {
          "indexed": true,
          "internalType": "address",
          "name": "from",
          "type": "address"
        },
        {
          "indexed": true,
          "internalType": "address",
          "name": "to",
          "type": "address"
        }
      ],
      "name": "OwnershipTransferRequested",
      "type": "event"
    },
    {
      "anonymous": false,
      "inputs": [
        {
          "indexed": true,
          "internalType": "address",
          "name": "from",
          "type": "address"
        },
        {
          "indexed": true,
          "internalType": "address",
          "name": "to",
          "type": "address"
        }
      ],
      "name": "OwnershipTransferred",
      "type": "event"
    },
    {
      "anonymous": false,
      "inputs": [
        {
          "indexed": false,
          "internalType": "uint256",
          "name": "gameId",
          "type": "uint256"
        },
        {
          "indexed": false,
          "internalType": "address",
          "name": "player2",
          "type": "address"
        }
      ],
      "name": "PlayerJoined",
      "type": "event"
    },
    {
      "inputs": [],
      "name": "PAYOUT_AMOUNT",
      "outputs": [
        {
          "internalType": "uint256",
          "name": "",
          "type": "uint256"
        }
      ],
      "stateMutability": "view",
      "type": "function"
    },
    {
      "inputs": [],
      "name": "WAGER_AMOUNT",
      "outputs": [
        {
          "internalType": "uint256",
          "name": "",
          "type": "uint256"
        }
      ],
      "stateMutability": "view",
      "type": "function"
    },
    {
      "inputs": [],
      "name": "acceptOwnership",
      "outputs": [],
      "stateMutability": "nonpayable",
      "type": "function"
    },
    {
      "inputs": [],
      "name": "createGame",
      "outputs": [],
      "stateMutability": "payable",
      "type": "function"
    },
    {
      "inputs": [],
      "name": "gameCounter",
      "outputs": [
        {
          "internalType": "uint256",
          "name": "",
          "type": "uint256"
        }
      ],
      "stateMutability": "view",
      "type": "function"
    },
    {
      "inputs": [
        {
          "internalType": "uint256",
          "name": "",
          "type": "uint256"
        }
      ],
      "name": "games",
      "outputs": [
        {
          "internalType": "address",
          "name": "player1",
          "type": "address"
        },
        {
          "internalType": "address",
          "name": "player2",
          "type": "address"
        },
        {
          "internalType": "enum RockPaperScissors.Move",
          "name": "move1",
          "type": "uint8"
        },
        {
          "internalType": "enum RockPaperScissors.Move",
          "name": "move2",
          "type": "uint8"
        },
        {
          "internalType": "enum RockPaperScissors.GameState",
          "name": "state",
          "type": "uint8"
        },
        {
          "internalType": "uint256",
          "name": "randomRequestId",
          "type": "uint256"
        }
      ],
      "stateMutability": "view",
      "type": "function"
    },
    {
      "inputs": [
        {
          "internalType": "address",
          "name": "",
          "type": "address"
        }
      ],
      "name": "gamesPlayed",
      "outputs": [
        {
          "internalType": "uint256",
          "name": "",
          "type": "uint256"
        }
      ],
      "stateMutability": "view",
      "type": "function"
    },
    {
      "inputs": [
        {
          "internalType": "address",
          "name": "",
          "type": "address"
        }
      ],
      "name": "gamesWon",
      "outputs": [
        {
          "internalType": "uint256",
          "name": "",
          "type": "uint256"
        }
      ],
      "stateMutability": "view",
      "type": "function"
    },
    {
      "inputs": [
        {
          "internalType": "uint256",
          "name": "gameId",
          "type": "uint256"
        }
      ],
      "name": "getGame",
      "outputs": [
        {
          "internalType": "address",
          "name": "player1",
          "type": "address"
        },
        {
          "internalType": "address",
          "name": "player2",
          "type": "address"
        },
        {
          "internalType": "enum RockPaperScissors.Move",
          "name": "move1",
          "type": "uint8"
        },
        {
          "internalType": "enum RockPaperScissors.Move",
          "name": "move2",
          "type": "uint8"
        },
        {
          "internalType": "enum RockPaperScissors.GameState",
          "name": "state",
          "type": "uint8"
        },
        {
          "internalType": "uint256",
          "name": "randomRequestId",
          "type": "uint256"
        }
      ],
      "stateMutability": "view",
      "type": "function"
    },
    {
      "inputs": [
        {
          "internalType": "uint256",
          "name": "gameId",
          "type": "uint256"
        }
      ],
      "name": "joinGame",
      "outputs": [],
      "stateMutability": "payable",
      "type": "function"
    },
    {
      "inputs": [
        {
          "internalType": "uint256",
          "name": "gameId",
          "type": "uint256"
        },
        {
          "internalType": "enum RockPaperScissors.Move",
          "name": "move_",
          "type": "uint8"
        }
      ],
      "name": "makeMove",
      "outputs": [],
      "stateMutability": "nonpayable",
      "type": "function"
    },
    {
      "inputs": [],
      "name": "owner",
      "outputs": [
        {
          "internalType": "address",
          "name": "",
          "type": "address"
        }
      ],
      "stateMutability": "view",
      "type": "function"
    },
    {
      "inputs": [
        {
          "internalType": "uint256",
          "name": "requestId",
          "type": "uint256"
        },
        {
          "internalType": "uint256[]",
          "name": "randomWords",
          "type": "uint256[]"
        }
      ],
      "name": "rawFulfillRandomWords",
      "outputs": [],
      "stateMutability": "nonpayable",
      "type": "function"
    },
    {
      "inputs": [
        {
          "internalType": "uint256",
          "name": "",
          "type": "uint256"
        }
      ],
      "name": "requestIdToGameId",
      "outputs": [
        {
          "internalType": "uint256",
          "name": "",
          "type": "uint256"
        }
      ],
      "stateMutability": "view",
      "type": "function"
    },
    {
      "inputs": [],
      "name": "s_vrfCoordinator",
      "outputs": [
        {
          "internalType": "contract IVRFCoordinatorV2Plus",
          "name": "",
          "type": "address"
        }
      ],
      "stateMutability": "view",
      "type": "function"
    },
    {
      "inputs": [
        {
          "internalType": "address",
          "name": "_vrfCoordinator",
          "type": "address"
        }
      ],
      "name": "setCoordinator",
      "outputs": [],
      "stateMutability": "nonpayable",
      "type": "function"
    },
    {
      "inputs": [
        {
          "internalType": "address",
          "name": "to",
          "type": "address"
        }
      ],
      "name": "transferOwnership",
      "outputs": [],
      "stateMutability": "nonpayable",
      "type": "function"
    },
    {
      "inputs": [],
      "name": "withdrawLink",
      "outputs": [],
      "stateMutability": "nonpayable",
      "type": "function"
    }
  ],
  "bytecode": "0x6080604052600580546001600160a01b0319908116735c210ef41cd1a72de73bf76ec39637bb0d3d7bee1790915560068054909116730b9d5d9136855f6fec3c0993fee6e9ce8a2978461790557fc799bd1e3bd4d1a41cd4968997a4e03dfd2a3c7c04b695881138580163f428876008553480156200007d57600080fd5b50604051620018de380380620018de833981016040819052620000a0916200024f565b600554600160009081556001600160a01b039091169033908190816200010d5760405162461bcd60e51b815260206004820152601860248201527f43616e6e6f7420736574206f776e657220746f207a65726f000000000000000060448201526064015b60405180910390fd5b600180546001600160a01b0319166001600160a01b038481169190911790915581161562000140576200014081620001a3565b5050506001600160a01b0381166200016b5760405163d92e233d60e01b815260040160405180910390fd5b600380546001600160a01b03199081166001600160a01b03938416179091556005546004805491909316911617905560075562000269565b336001600160a01b03821603620001fd5760405162461bcd60e51b815260206004820152601760248201527f43616e6e6f74207472616e7366657220746f2073656c66000000000000000000604482015260640162000104565b600280546001600160a01b0319166001600160a01b03838116918217909255600154604051919216907fed8889f560326eb138920d842192f0eb3dd22b4f139c87a2c57538e05bae127890600090a350565b6000602082840312156200026257600080fd5b5051919050565b61166580620002796000396000f3fe6080604052600436106101095760003560e01c80638da5cb5b11610095578063a2f77bcc11610064578063a2f77bcc1461030c578063cb910bda14610377578063efaa55a014610390578063f2fde38b146103a3578063f416a09f146103c357600080fd5b80638da5cb5b146102855780638dc654a2146102b75780638ea98117146102cc5780639eccacf6146102ec57600080fd5b80632e0be39a116100dc5780632e0be39a1461020557806370180bc11461021b5780637255d7291461024857806379ba5097146102505780637fd6f7c41461026557600080fd5b80630386a7e01461010e578063117a5b901461013a5780631fa072db146101b65780631fe543e3146101e3575b600080fd5b34801561011a57600080fd5b50610127642e90edd00081565b6040519081526020015b60405180910390f35b34801561014657600080fd5b506101a46101553660046113b5565b6009602052600090815260409020805460018201546002909201546001600160a01b03918216929182169160ff600160a01b8204811692600160a81b8304821692600160b01b90049091169086565b604051610131969594939291906113f8565b3480156101c257600080fd5b506101276101d13660046113b5565b600d6020526000908152604090205481565b3480156101ef57600080fd5b506102036101fe36600461144e565b6103f0565b005b34801561021157600080fd5b50610127600c5481565b34801561022757600080fd5b506101276102363660046114cd565b600b6020526000908152604090205481565b610203610445565b34801561025c57600080fd5b50610203610621565b34801561027157600080fd5b506102036102803660046114fd565b6106cf565b34801561029157600080fd5b506001546001600160a01b03165b6040516001600160a01b039091168152602001610131565b3480156102c357600080fd5b50610203610a72565b3480156102d857600080fd5b506102036102e73660046114cd565b610ba5565b3480156102f857600080fd5b5060035461029f906001600160a01b031681565b34801561031857600080fd5b506101a46103273660046113b5565b6000908152600960205260409020805460018201546002909201546001600160a01b03918216939183169260ff600160a01b8204811693600160a81b8304821693600160b01b9093049091169190565b34801561038357600080fd5b5061012764174876e80081565b61020361039e3660046113b5565b610c97565b3480156103af57600080fd5b506102036103be3660046114cd565b610e8c565b3480156103cf57600080fd5b506101276103de3660046114cd565b600a6020526000908152604090205481565b6003546001600160a01b031633146104355760035460405163073e64fd60e21b81523360048201526001600160a01b0390911660248201526044015b60405180910390fd5b610440838383610e9d565b505050565b61044d610f38565b64174876e800341461049a5760405162461bcd60e51b8152602060048201526016602482015275125b98dbdc9c9958dd081dd859d95c88185b5bdd5b9d60521b604482015260640161042c565b600c80549060006104aa83611531565b90915550506040805160c08101825233815260006020808301828152838501838152606085018490526080850184905260a08501849052600c548452600990925293909120825181546001600160a01b03199081166001600160a01b0392831617835594516001830180549687169190921690811782559251939491939290916001600160a81b03191617600160a01b83600381111561054c5761054c6113ce565b0217905550606082015160018201805460ff60a81b1916600160a81b83600381111561057a5761057a6113ce565b0217905550608082015160018201805460ff60b01b1916600160b01b8360028111156105a8576105a86113ce565b021790555060a09190910151600290910155336000908152600b602052604081208054916105d583611531565b9091555050600c54604080519182523360208301527fc3e0f84839dc888c892a013d10c8f9d6dc05a21a879d0ce468ca558013e9121c910160405180910390a161061f6001600055565b565b6002546001600160a01b031633146106745760405162461bcd60e51b815260206004820152601660248201527526bab9ba10313290383937b837b9b2b21037bbb732b960511b604482015260640161042c565b600180546001600160a01b0319808216339081179093556002805490911690556040516001600160a01b03909116919082907f8be0079c531659141344cd1fd0a4f28419497f9722a3daafe3b4186f6b6457e090600090a350565b6106d7610f38565b600082815260096020526040902080546001600160a01b03166107325760405162461bcd60e51b815260206004820152601360248201527211d85b5948191bd95cc81b9bdd08195e1a5cdd606a1b604482015260640161042c565b6001826003811115610746576107466113ce565b1015801561076657506003826003811115610763576107636113ce565b11155b6107a15760405162461bcd60e51b815260206004820152600c60248201526b496e76616c6964206d6f766560a01b604482015260640161042c565b60006001820154600160b01b900460ff1660028111156107c3576107c36113ce565b146108105760405162461bcd60e51b815260206004820152601960248201527f47616d65206e6f7420696e2050656e64696e6720737461746500000000000000604482015260640161042c565b80546001600160a01b0316331480610834575060018101546001600160a01b031633145b61086f5760405162461bcd60e51b815260206004820152600c60248201526b2737ba103090383630bcb2b960a11b604482015260640161042c565b80546001600160a01b031633036109205760006001820154600160a01b900460ff1660038111156108a2576108a26113ce565b146108ef5760405162461bcd60e51b815260206004820152601a60248201527f506c617965722031206d6f766520616c7265616479206d616465000000000000604482015260640161042c565b60018101805483919060ff60a01b1916600160a01b836003811115610916576109166113ce565b02179055506109bc565b60006001820154600160a81b900460ff166003811115610942576109426113ce565b1461098f5760405162461bcd60e51b815260206004820152601a60248201527f506c617965722032206d6f766520616c7265616479206d616465000000000000604482015260640161042c565b60018101805483919060ff60a81b1916600160a81b8360038111156109b6576109b66113ce565b02179055505b60006001820154600160a01b900460ff1660038111156109de576109de6113ce565b14158015610a0c575060006001820154600160a81b900460ff166003811115610a0957610a096113ce565b14155b15610a635760018101805460ff60b01b1916600160b01b179055610a2f83610f62565b6040518381527fd29757087cf857e5fb3178239b074d6cd96d3f64a5bb1f6c632eecbcba4a48c69060200160405180910390a15b50610a6e6001600055565b5050565b610a7a611042565b6006546040516370a0823160e01b81523060048201526001600160a01b0390911690819063a9059cbb90339083906370a0823190602401602060405180830381865afa158015610ace573d6000803e3d6000fd5b505050506040513d601f19601f82011682018060405250810190610af29190611558565b6040516001600160e01b031960e085901b1681526001600160a01b03909216600483015260248201526044016020604051808303816000875af1158015610b3d573d6000803e3d6000fd5b505050506040513d601f19601f82011682018060405250810190610b619190611571565b610ba25760405162461bcd60e51b81526020600482015260126024820152712ab730b13632903a37903a3930b739b332b960711b604482015260640161042c565b50565b6001546001600160a01b03163314801590610bcb57506003546001600160a01b03163314155b15610c1c5733610be36001546001600160a01b031690565b60035460405163061db9c160e01b81526001600160a01b039384166004820152918316602483015291909116604482015260640161042c565b6001600160a01b038116610c435760405163d92e233d60e01b815260040160405180910390fd5b600380546001600160a01b0319166001600160a01b0383169081179091556040519081527fd1a6a14209a385a964d036e404cb5cfb71f4000cdb03c9366292430787261be69060200160405180910390a150565b610c9f610f38565b60008181526009602052604090203464174876e80014610cfa5760405162461bcd60e51b8152602060048201526016602482015275125b98dbdc9c9958dd081dd859d95c88185b5bdd5b9d60521b604482015260640161042c565b60006001820154600160b01b900460ff166002811115610d1c57610d1c6113ce565b14610d5c5760405162461bcd60e51b815260206004820152601060248201526f47616d65206e6f742070656e64696e6760801b604482015260640161042c565b80546001600160a01b031615801590610d80575060018101546001600160a01b0316155b610dc15760405162461bcd60e51b8152602060048201526012602482015271496e76616c69642067616d6520737461746560701b604482015260640161042c565b8054336001600160a01b0390911603610e135760405162461bcd60e51b815260206004820152601460248201527343616e6e6f74206a6f696e206f776e2067616d6560601b604482015260640161042c565b6001810180546001600160a01b031916339081179091556000908152600b60205260408120805491610e4483611531565b9091555050604080518381523360208201527f87969bc7faf902221a147b95ceba76e011c5efb0339a0a8ee7a2bb82d9cfbbd6910160405180910390a150610ba26001600055565b610e94611042565b610ba281611095565b6000838152600d60209081526040808320548084526009909252909120600180820154600160b01b900460ff166002811115610edb57610edb6113ce565b14610f285760405162461bcd60e51b815260206004820152601d60248201527f47616d65206e6f7420726561647920666f72207265736f6c7574696f6e000000604482015260640161042c565b610f318261113f565b5050505050565b600260005403610f5b57604051633ee5aeb560e01b815260040160405180910390fd5b6002600055565b600380546040805160c081018252600854815260075460208083019190915281830194909452620186a060608201526001608082015281519384018252600080855260a08201949094529051634d8e1c2f60e11b81526001600160a01b0390921691639b1c385e91610fd691600401611593565b6020604051808303816000875af1158015610ff5573d6000803e3d6000fd5b505050506040513d601f19601f820116820180604052508101906110199190611558565b6000818152600d6020908152604080832086905594825260099052929092206002019190915550565b6001546001600160a01b0316331461061f5760405162461bcd60e51b815260206004820152601660248201527527b7363c9031b0b63630b1363290313c9037bbb732b960511b604482015260640161042c565b336001600160a01b038216036110ed5760405162461bcd60e51b815260206004820152601760248201527f43616e6e6f74207472616e7366657220746f2073656c66000000000000000000604482015260640161042c565b600280546001600160a01b0319166001600160a01b03838116918217909255600154604051919216907fed8889f560326eb138920d842192f0eb3dd22b4f139c87a2c57538e05bae127890600090a350565b600081815260096020526040812060018101805460ff60b01b198116600160b11b179182905582549293926111969260ff600160a01b8204811693600160a81b90920416916001600160a01b0390811691166112c9565b90506001600160a01b0381166112225781546040516001600160a01b039091169060009064174876e8009082818181858883f193505050501580156111df573d6000803e3d6000fd5b5060018201546040516001600160a01b039091169060009064174876e8009082818181858883f1935050505015801561121c573d6000803e3d6000fd5b50611283565b6040516001600160a01b03821690600090642e90edd0009082818181858883f19350505050158015611258573d6000803e3d6000fd5b506001600160a01b0381166000908152600a6020526040812080549161127d83611531565b91905055505b604080518481526001600160a01b03831660208201527fe1bef002fde33ebfa1c25a643ad667aa6dc80f7c8efb4b4161991251f8b4563a910160405180910390a1505050565b60008360038111156112dd576112dd6113ce565b8560038111156112ef576112ef6113ce565b036112fc575060006113ad565b6001856003811115611310576113106113ce565b14801561132e5750600384600381111561132c5761132c6113ce565b145b8061136657506002856003811115611348576113486113ce565b14801561136657506001846003811115611364576113646113ce565b145b8061139e57506003856003811115611380576113806113ce565b14801561139e5750600284600381111561139c5761139c6113ce565b145b156113aa5750816113ad565b50805b949350505050565b6000602082840312156113c757600080fd5b5035919050565b634e487b7160e01b600052602160045260246000fd5b600481106113f4576113f46113ce565b9052565b6001600160a01b0387811682528616602082015260c0810161141d60408301876113e4565b61142a60608301866113e4565b6003841061143a5761143a6113ce565b608082019390935260a00152949350505050565b60008060006040848603121561146357600080fd5b83359250602084013567ffffffffffffffff8082111561148257600080fd5b818601915086601f83011261149657600080fd5b8135818111156114a557600080fd5b8760208260051b85010111156114ba57600080fd5b6020830194508093505050509250925092565b6000602082840312156114df57600080fd5b81356001600160a01b03811681146114f657600080fd5b9392505050565b6000806040838503121561151057600080fd5b8235915060208301356004811061152657600080fd5b809150509250929050565b60006001820161155157634e487b7160e01b600052601160045260246000fd5b5060010190565b60006020828403121561156a57600080fd5b5051919050565b60006020828403121561158357600080fd5b815180151581146114f657600080fd5b6000602080835283518184015280840151604084015261ffff6040850151166060840152606084015163ffffffff80821660808601528060808701511660a0860152505060a084015160c08085015280518060e086015260005b8181101561160a57828101840151868201610100015283016115ed565b506101009250600083828701015282601f19601f83011686010193505050509291505056fea2646970667358221220f52a36b3de5bfb00c1a2914f2ee769762a5896b031346eeb34a9fbb6303a46e764736f6c63430008140033",
  "linkReferences": {},
  "deployedLinkReferences": {}
}