{
    "_format": "hh-sol-artifact-1",
    "contractName": "RockPaperScissors",
    "sourceName": "contracts/RockPaperScissors.sol",
    "abi": [
        {
            "inputs": [],
            "stateMutability": "nonpayable",
            "type": "constructor"
        },
        {
            "inputs": [
                {
                    "internalType": "address",
                    "name": "owner",
                    "type": "address"
                }
            ],
            "name": "OwnableInvalidOwner",
            "type": "error"
        },
        {
            "inputs": [
                {
                    "internalType": "address",
                    "name": "account",
                    "type": "address"
                }
            ],
            "name": "OwnableUnauthorizedAccount",
            "type": "error"
        },
        {
            "inputs": [],
            "name": "ReentrancyGuardReentrantCall",
            "type": "error"
        },
        {
            "anonymous": false,
            "inputs": [
                {
                    "indexed": true,
                    "internalType": "uint256",
                    "name": "gameId",
                    "type": "uint256"
                },
                {
                    "indexed": true,
                    "internalType": "address",
                    "name": "player1",
                    "type": "address"
                },
                {
                    "indexed": false,
                    "internalType": "uint256",
                    "name": "wagerAmount",
                    "type": "uint256"
                }
            ],
            "name": "GameCreated",
            "type": "event"
        },
        {
            "anonymous": false,
            "inputs": [
                {
                    "indexed": true,
                    "internalType": "uint256",
                    "name": "gameId",
                    "type": "uint256"
                },
                {
                    "indexed": true,
                    "internalType": "address",
                    "name": "winner",
                    "type": "address"
                },
                {
                    "indexed": false,
                    "internalType": "uint256",
                    "name": "stakeAmount",
                    "type": "uint256"
                },
                {
                    "indexed": false,
                    "internalType": "enum RockPaperScissors.Move",
                    "name": "player1Move",
                    "type": "uint8"
                },
                {
                    "indexed": false,
                    "internalType": "enum RockPaperScissors.Move",
                    "name": "player2Move",
                    "type": "uint8"
                }
            ],
            "name": "GameResolved",
            "type": "event"
        },
        {
            "anonymous": false,
            "inputs": [
                {
                    "indexed": true,
                    "internalType": "uint256",
                    "name": "gameId",
                    "type": "uint256"
                },
                {
                    "indexed": true,
                    "internalType": "address",
                    "name": "player",
                    "type": "address"
                },
                {
                    "indexed": false,
                    "internalType": "enum RockPaperScissors.Move",
                    "name": "move",
                    "type": "uint8"
                }
            ],
            "name": "MoveMade",
            "type": "event"
        },
        {
            "anonymous": false,
            "inputs": [
                {
                    "indexed": true,
                    "internalType": "address",
                    "name": "previousOwner",
                    "type": "address"
                },
                {
                    "indexed": true,
                    "internalType": "address",
                    "name": "newOwner",
                    "type": "address"
                }
            ],
            "name": "OwnershipTransferred",
            "type": "event"
        },
        {
            "inputs": [],
            "name": "createGame",
            "outputs": [
                {
                    "internalType": "uint256",
                    "name": "",
                    "type": "uint256"
                }
            ],
            "stateMutability": "payable",
            "type": "function"
        },
        {
            "inputs": [],
            "name": "gameCount",
            "outputs": [
                {
                    "internalType": "uint256",
                    "name": "",
                    "type": "uint256"
                }
            ],
            "stateMutability": "view",
            "type": "function"
        },
        {
            "inputs": [
                {
                    "internalType": "uint256",
                    "name": "",
                    "type": "uint256"
                }
            ],
            "name": "games",
            "outputs": [
                {
                    "internalType": "address",
                    "name": "player1",
                    "type": "address"
                },
                {
                    "internalType": "address",
                    "name": "player2",
                    "type": "address"
                },
                {
                    "internalType": "enum RockPaperScissors.Move",
                    "name": "player1Move",
                    "type": "uint8"
                },
                {
                    "internalType": "enum RockPaperScissors.Move",
                    "name": "player2Move",
                    "type": "uint8"
                },
                {
                    "internalType": "uint256",
                    "name": "wagerAmount",
                    "type": "uint256"
                },
                {
                    "internalType": "enum RockPaperScissors.GameStatus",
                    "name": "status",
                    "type": "uint8"
                },
                {
                    "internalType": "uint256",
                    "name": "timestamp",
                    "type": "uint256"
                }
            ],
            "stateMutability": "view",
            "type": "function"
        },
        {
            "inputs": [
                {
                    "internalType": "address",
                    "name": "",
                    "type": "address"
                }
            ],
            "name": "gamesPlayed",
            "outputs": [
                {
                    "internalType": "uint256",
                    "name": "",
                    "type": "uint256"
                }
            ],
            "stateMutability": "view",
            "type": "function"
        },
        {
            "inputs": [
                {
                    "internalType": "address",
                    "name": "",
                    "type": "address"
                }
            ],
            "name": "gamesWon",
            "outputs": [
                {
                    "internalType": "uint256",
                    "name": "",
                    "type": "uint256"
                }
            ],
            "stateMutability": "view",
            "type": "function"
        },
        {
            "inputs": [
                {
                    "internalType": "uint256",
                    "name": "gameId",
                    "type": "uint256"
                }
            ],
            "name": "getGame",
            "outputs": [
                {
                    "components": [
                        {
                            "internalType": "address",
                            "name": "player1",
                            "type": "address"
                        },
                        {
                            "internalType": "address",
                            "name": "player2",
                            "type": "address"
                        },
                        {
                            "internalType": "enum RockPaperScissors.Move",
                            "name": "player1Move",
                            "type": "uint8"
                        },
                        {
                            "internalType": "enum RockPaperScissors.Move",
                            "name": "player2Move",
                            "type": "uint8"
                        },
                        {
                            "internalType": "uint256",
                            "name": "wagerAmount",
                            "type": "uint256"
                        },
                        {
                            "internalType": "enum RockPaperScissors.GameStatus",
                            "name": "status",
                            "type": "uint8"
                        },
                        {
                            "internalType": "uint256",
                            "name": "timestamp",
                            "type": "uint256"
                        }
                    ],
                    "internalType": "struct RockPaperScissors.Game",
                    "name": "",
                    "type": "tuple"
                }
            ],
            "stateMutability": "view",
            "type": "function"
        },
        {
            "inputs": [
                {
                    "internalType": "address",
                    "name": "player",
                    "type": "address"
                }
            ],
            "name": "getPlayerStats",
            "outputs": [
                {
                    "internalType": "uint256",
                    "name": "won",
                    "type": "uint256"
                },
                {
                    "internalType": "uint256",
                    "name": "played",
                    "type": "uint256"
                }
            ],
            "stateMutability": "view",
            "type": "function"
        },
        {
            "inputs": [
                {
                    "internalType": "uint256",
                    "name": "gameId",
                    "type": "uint256"
                }
            ],
            "name": "joinGame",
            "outputs": [],
            "stateMutability": "payable",
            "type": "function"
        },
        {
            "inputs": [
                {
                    "internalType": "uint256",
                    "name": "gameId",
                    "type": "uint256"
                },
                {
                    "internalType": "uint8",
                    "name": "move",
                    "type": "uint8"
                }
            ],
            "name": "makeMove",
            "outputs": [],
            "stateMutability": "nonpayable",
            "type": "function"
        },
        {
            "inputs": [],
            "name": "owner",
            "outputs": [
                {
                    "internalType": "address",
                    "name": "",
                    "type": "address"
                }
            ],
            "stateMutability": "view",
            "type": "function"
        },
        {
            "inputs": [],
            "name": "renounceOwnership",
            "outputs": [],
            "stateMutability": "nonpayable",
            "type": "function"
        },
        {
            "inputs": [
                {
                    "internalType": "address",
                    "name": "newOwner",
                    "type": "address"
                }
            ],
            "name": "transferOwnership",
            "outputs": [],
            "stateMutability": "nonpayable",
            "type": "function"
        }
    ],
    "bytecode": "0x608060405234801561001057600080fd5b506001600055338061003c57604051631e4fbdf760e01b81526000600482015260240160405180910390fd5b6100458161004b565b5061009d565b600180546001600160a01b038381166001600160a01b0319831681179093556040519116919082907f8be0079c531659141344cd1fd0a4f28419497f9722a3daafe3b4186f6b6457e090600090a35050565b611207806100ac6000396000f3fe6080604052600436106100a75760003560e01c80637fd6f7c4116100645780637fd6f7c4146101ff5780638da5cb5b1461021f578063a2f77bcc14610247578063efaa55a014610274578063f2fde38b14610287578063f416a09f146102a757600080fd5b8063117a5b90146100ac5780634d1975b4146101375780634fd66eae1461015b57806370180bc1146101b3578063715018a6146101e05780637255d729146101f7575b600080fd5b3480156100b857600080fd5b5061011b6100c7366004610fd2565b6002602081905260009182526040909120805460018201549282015460038301546004909301546001600160a01b03928316949283169360ff600160a01b8504811694600160a81b90048116939291169087565b60405161012e9796959493929190611025565b60405180910390f35b34801561014357600080fd5b5061014d60035481565b60405190815260200161012e565b34801561016757600080fd5b5061019e61017636600461107c565b6001600160a01b03166000908152600460209081526040808320546005909252909120549091565b6040805192835260208301919091520161012e565b3480156101bf57600080fd5b5061014d6101ce36600461107c565b60056020526000908152604090205481565b3480156101ec57600080fd5b506101f56102d4565b005b61014d6102e8565b34801561020b57600080fd5b506101f561021a3660046110ac565b6104aa565b34801561022b57600080fd5b506001546040516001600160a01b03909116815260200161012e565b34801561025357600080fd5b50610267610262366004610fd2565b6107b7565b60405161012e91906110e2565b6101f5610282366004610fd2565b6108df565b34801561029357600080fd5b506101f56102a236600461107c565b610a4a565b3480156102b357600080fd5b5061014d6102c236600461107c565b60046020526000908152604090205481565b6102dc610a88565b6102e66000610ab5565b565b600080341161033e5760405162461bcd60e51b815260206004820152601d60248201527f4d7573742073656e64204156415820746f206372656174652067616d6500000060448201526064015b60405180910390fd5b600380546000918261034f8361116a565b909155506040805160e081018252338152600060208083018281528385018381526060850184905234608086015260a085018490524260c0860152868452600290925293909120825181546001600160a01b039182166001600160a01b0319918216178355945160018301805491909216958116861782559251959650929490939092916001600160a81b03191617600160a01b8360038111156103f5576103f5610feb565b0217905550606082015160018201805460ff60a81b1916600160a81b83600381111561042357610423610feb565b02179055506080820151816002015560a08201518160030160006101000a81548160ff0219169083600281111561045c5761045c610feb565b021790555060c09190910151600490910155604051348152339082907f7dfb67e9ff596fca4da65c7eedb128cd1aac553af54b3c0cb733625a2480d8bd9060200160405180910390a3919050565b60ff8116158015906104c05750600360ff821611155b6104fb5760405162461bcd60e51b815260206004820152600c60248201526b496e76616c6964206d6f766560a01b6044820152606401610335565b60008160ff16600381111561051257610512610feb565b6000848152600260205260408120919250600382015460ff16600281111561053c5761053c610feb565b1461057c5760405162461bcd60e51b815260206004820152601060248201526f47616d65206e6f742070656e64696e6760801b6044820152606401610335565b80546001600160a01b03163314806105a0575060018101546001600160a01b031633145b6105dc5760405162461bcd60e51b815260206004820152600d60248201526c4e6f7420796f75722067616d6560981b6044820152606401610335565b80546001600160a01b031633036106815760006001820154600160a01b900460ff16600381111561060f5761060f610feb565b146106505760405162461bcd60e51b81526020600482015260116024820152704d6f766520616c7265616479206d61646560781b6044820152606401610335565b60018101805483919060ff60a01b1916600160a01b83600381111561067757610677610feb565b0217905550610711565b60006001820154600160a81b900460ff1660038111156106a3576106a3610feb565b146106e45760405162461bcd60e51b81526020600482015260116024820152704d6f766520616c7265616479206d61646560781b6044820152606401610335565b60018101805483919060ff60a81b1916600160a81b83600381111561070b5761070b610feb565b02179055505b336001600160a01b0316847f2e609ae07cc76b1b2b76d7ada4250d5191a8eb5eb7e19181c23c5da8e9643ad18460405161074b9190611183565b60405180910390a360006001820154600160a01b900460ff16600381111561077557610775610feb565b141580156107a3575060006001820154600160a81b900460ff1660038111156107a0576107a0610feb565b14155b156107b1576107b184610b07565b50505050565b6040805160e0808201835260008083526020808401829052838501829052606084018290526080840182905260a0840182905260c0840182905285825260028152908490208451928301855280546001600160a01b0390811684526001820154908116928401929092529293919291830190600160a01b900460ff16600381111561084457610844610feb565b600381111561085557610855610feb565b81526020016001820160159054906101000a900460ff16600381111561087d5761087d610feb565b600381111561088e5761088e610feb565b81526002828101546020830152600383015460409092019160ff16908111156108b9576108b9610feb565b60028111156108ca576108ca610feb565b81526020016004820154815250509050919050565b600081815260026020526040902080546001600160a01b03166109395760405162461bcd60e51b815260206004820152601260248201527111d85b5948191bd95cdb89dd08195e1a5cdd60721b6044820152606401610335565b60018101546001600160a01b0316156109885760405162461bcd60e51b815260206004820152601160248201527011d85b5948185b1c9958591e48199d5b1b607a1b6044820152606401610335565b806002015434146109db5760405162461bcd60e51b815260206004820152601760248201527f4d757374206d6174636820776167657220616d6f756e740000000000000000006044820152606401610335565b80546001600160a01b03163303610a345760405162461bcd60e51b815260206004820152601c60248201527f43616e6e6f7420706c617920616761696e737420796f757273656c66000000006044820152606401610335565b60010180546001600160a01b0319163317905550565b610a52610a88565b6001600160a01b038116610a7c57604051631e4fbdf760e01b815260006004820152602401610335565b610a8581610ab5565b50565b6001546001600160a01b031633146102e65760405163118cdaa760e01b8152336004820152602401610335565b600180546001600160a01b038381166001600160a01b0319831681179093556040519116919082907f8be0079c531659141344cd1fd0a4f28419497f9722a3daafe3b4186f6b6457e090600090a35050565b600081815260026020908152604080832080546001600160a01b031684526005909252822080549192610b398361116a565b909155505060018101546001600160a01b03166000908152600560205260408120805491610b668361116a565b909155505060018101546000908190600160a81b900460ff166003811115610b9057610b90610feb565b6001840154600160a01b900460ff166003811115610bb057610bb0610feb565b03610d2357505060038101805460ff19166002908117909155815490820154604051600092839283926001600160a01b03909216918381818185875af1925050503d8060008114610c1d576040519150601f19603f3d011682016040523d82523d6000602084013e610c22565b606091505b5050905080610c735760405162461bcd60e51b815260206004820152601860248201527f4661696c656420746f20726566756e6420706c617965723100000000000000006044820152606401610335565b600184015460028501546040516000926001600160a01b031691908381818185875af1925050503d8060008114610cc6576040519150601f19603f3d011682016040523d82523d6000602084013e610ccb565b606091505b5050905080610d1c5760405162461bcd60e51b815260206004820152601860248201527f4661696c656420746f20726566756e6420706c617965723200000000000000006044820152606401610335565b5050610e83565b6003838101805460ff1916600190811790915584015460ff600160a01b9091041690811115610d5457610d54610feb565b6001840154610d769060ff600160a01b8204811691600160a81b900416610ee9565b6003811115610d8757610d87610feb565b14610d9f5760018301546001600160a01b0316610dab565b82546001600160a01b03165b6001600160a01b0381166000908152600460205260408120805492945090610dd28361116a565b9091555050600280840154610de691611191565b90506000826001600160a01b03168260405160006040518083038185875af1925050503d8060008114610e35576040519150601f19603f3d011682016040523d82523d6000602084013e610e3a565b606091505b5050905080610e815760405162461bcd60e51b815260206004820152601360248201527208cc2d2d8cac840e8de40e6cadcc84082ac82b606b1b6044820152606401610335565b505b60018301546040516001600160a01b0384169186917fd3c152a05c21babbf19bd5df8dcb55eeec73a6d70875da33186e7a1561f5035291610edb91869160ff600160a01b8204811692600160a81b90920416906111a8565b60405180910390a350505050565b6000816003811115610efd57610efd610feb565b836003811115610f0f57610f0f610feb565b03610f1b575081610fcc565b6001836003811115610f2f57610f2f610feb565b148015610f4d57506003826003811115610f4b57610f4b610feb565b145b80610f8557506002836003811115610f6757610f67610feb565b148015610f8557506001826003811115610f8357610f83610feb565b145b80610fbd57506003836003811115610f9f57610f9f610feb565b148015610fbd57506002826003811115610fbb57610fbb610feb565b145b15610fc9575081610fcc565b50805b92915050565b600060208284031215610fe457600080fd5b5035919050565b634e487b7160e01b600052602160045260246000fd5b6004811061101157611011610feb565b9052565b6003811061101157611011610feb565b6001600160a01b0388811682528716602082015260e0810161104a6040830188611001565b6110576060830187611001565b84608083015261106a60a0830185611015565b8260c083015298975050505050505050565b60006020828403121561108e57600080fd5b81356001600160a01b03811681146110a557600080fd5b9392505050565b600080604083850312156110bf57600080fd5b82359150602083013560ff811681146110d757600080fd5b809150509250929050565b81516001600160a01b0390811682526020808401519091169082015260408083015160e083019161111590840182611001565b5060608301516111286060840182611001565b506080830151608083015260a083015161114560a0840182611015565b5060c092830151919092015290565b634e487b7160e01b600052601160045260246000fd5b60006001820161117c5761117c611154565b5060010190565b60208101610fcc8284611001565b8082028115828204841417610fcc57610fcc611154565b838152606081016111bc6020830185611001565b6111c96040830184611001565b94935050505056fea264697066735822122024e89be99ec8da648be538f4d828f2d730e055d8aba3c39fddca605f9f55c1c864736f6c63430008140033",
    "linkReferences": {},
    "deployedLinkReferences": {}
}