{
  "_format": "hh-sol-artifact-1",
  "contractName": "RockPaperScissors",
  "sourceName": "contracts/RockPaperScissors.sol",
  "abi": [
    {
      "inputs": [
        {
          "internalType": "uint256",
          "name": "_subscriptionId",
          "type": "uint256"
        }
      ],
      "stateMutability": "nonpayable",
      "type": "constructor"
    },
    {
      "inputs": [
        {
          "internalType": "address",
          "name": "have",
          "type": "address"
        },
        {
          "internalType": "address",
          "name": "want",
          "type": "address"
        }
      ],
      "name": "OnlyCoordinatorCanFulfill",
      "type": "error"
    },
    {
      "inputs": [
        {
          "internalType": "address",
          "name": "owner",
          "type": "address"
        }
      ],
      "name": "OwnableInvalidOwner",
      "type": "error"
    },
    {
      "inputs": [
        {
          "internalType": "address",
          "name": "account",
          "type": "address"
        }
      ],
      "name": "OwnableUnauthorizedAccount",
      "type": "error"
    },
    {
      "inputs": [],
      "name": "ReentrancyGuardReentrantCall",
      "type": "error"
    },
    {
      "anonymous": false,
      "inputs": [
        {
          "indexed": false,
          "internalType": "uint256",
          "name": "gameId",
          "type": "uint256"
        },
        {
          "indexed": false,
          "internalType": "address",
          "name": "player1",
          "type": "address"
        }
      ],
      "name": "GameCreated",
      "type": "event"
    },
    {
      "anonymous": false,
      "inputs": [
        {
          "indexed": false,
          "internalType": "uint256",
          "name": "gameId",
          "type": "uint256"
        },
        {
          "indexed": false,
          "internalType": "address",
          "name": "winner",
          "type": "address"
        }
      ],
      "name": "GameResolved",
      "type": "event"
    },
    {
      "anonymous": false,
      "inputs": [
        {
          "indexed": false,
          "internalType": "uint256",
          "name": "gameId",
          "type": "uint256"
        }
      ],
      "name": "MovesSubmitted",
      "type": "event"
    },
    {
      "anonymous": false,
      "inputs": [
        {
          "indexed": true,
          "internalType": "address",
          "name": "previousOwner",
          "type": "address"
        },
        {
          "indexed": true,
          "internalType": "address",
          "name": "newOwner",
          "type": "address"
        }
      ],
      "name": "OwnershipTransferred",
      "type": "event"
    },
    {
      "anonymous": false,
      "inputs": [
        {
          "indexed": false,
          "internalType": "uint256",
          "name": "gameId",
          "type": "uint256"
        },
        {
          "indexed": false,
          "internalType": "address",
          "name": "player2",
          "type": "address"
        }
      ],
      "name": "PlayerJoined",
      "type": "event"
    },
    {
      "inputs": [],
      "name": "PAYOUT_AMOUNT",
      "outputs": [
        {
          "internalType": "uint256",
          "name": "",
          "type": "uint256"
        }
      ],
      "stateMutability": "view",
      "type": "function"
    },
    {
      "inputs": [],
      "name": "WAGER_AMOUNT",
      "outputs": [
        {
          "internalType": "uint256",
          "name": "",
          "type": "uint256"
        }
      ],
      "stateMutability": "view",
      "type": "function"
    },
    {
      "inputs": [],
      "name": "createGame",
      "outputs": [],
      "stateMutability": "payable",
      "type": "function"
    },
    {
      "inputs": [],
      "name": "gameCounter",
      "outputs": [
        {
          "internalType": "uint256",
          "name": "",
          "type": "uint256"
        }
      ],
      "stateMutability": "view",
      "type": "function"
    },
    {
      "inputs": [
        {
          "internalType": "uint256",
          "name": "",
          "type": "uint256"
        }
      ],
      "name": "games",
      "outputs": [
        {
          "internalType": "address",
          "name": "player1",
          "type": "address"
        },
        {
          "internalType": "address",
          "name": "player2",
          "type": "address"
        },
        {
          "internalType": "enum RockPaperScissors.Move",
          "name": "move1",
          "type": "uint8"
        },
        {
          "internalType": "enum RockPaperScissors.Move",
          "name": "move2",
          "type": "uint8"
        },
        {
          "internalType": "enum RockPaperScissors.GameState",
          "name": "state",
          "type": "uint8"
        },
        {
          "internalType": "uint256",
          "name": "randomRequestId",
          "type": "uint256"
        }
      ],
      "stateMutability": "view",
      "type": "function"
    },
    {
      "inputs": [
        {
          "internalType": "address",
          "name": "",
          "type": "address"
        }
      ],
      "name": "gamesPlayed",
      "outputs": [
        {
          "internalType": "uint256",
          "name": "",
          "type": "uint256"
        }
      ],
      "stateMutability": "view",
      "type": "function"
    },
    {
      "inputs": [
        {
          "internalType": "address",
          "name": "",
          "type": "address"
        }
      ],
      "name": "gamesWon",
      "outputs": [
        {
          "internalType": "uint256",
          "name": "",
          "type": "uint256"
        }
      ],
      "stateMutability": "view",
      "type": "function"
    },
    {
      "inputs": [
        {
          "internalType": "uint256",
          "name": "gameId",
          "type": "uint256"
        }
      ],
      "name": "joinGame",
      "outputs": [],
      "stateMutability": "payable",
      "type": "function"
    },
    {
      "inputs": [
        {
          "internalType": "uint256",
          "name": "gameId",
          "type": "uint256"
        },
        {
          "internalType": "enum RockPaperScissors.Move",
          "name": "move_",
          "type": "uint8"
        }
      ],
      "name": "makeMove",
      "outputs": [],
      "stateMutability": "nonpayable",
      "type": "function"
    },
    {
      "inputs": [],
      "name": "owner",
      "outputs": [
        {
          "internalType": "address",
          "name": "",
          "type": "address"
        }
      ],
      "stateMutability": "view",
      "type": "function"
    },
    {
      "inputs": [
        {
          "internalType": "uint256",
          "name": "requestId",
          "type": "uint256"
        },
        {
          "internalType": "uint256[]",
          "name": "randomWords",
          "type": "uint256[]"
        }
      ],
      "name": "rawFulfillRandomWords",
      "outputs": [],
      "stateMutability": "nonpayable",
      "type": "function"
    },
    {
      "inputs": [],
      "name": "renounceOwnership",
      "outputs": [],
      "stateMutability": "nonpayable",
      "type": "function"
    },
    {
      "inputs": [
        {
          "internalType": "uint256",
          "name": "",
          "type": "uint256"
        }
      ],
      "name": "requestIdToGameId",
      "outputs": [
        {
          "internalType": "uint256",
          "name": "",
          "type": "uint256"
        }
      ],
      "stateMutability": "view",
      "type": "function"
    },
    {
      "inputs": [
        {
          "internalType": "address",
          "name": "newOwner",
          "type": "address"
        }
      ],
      "name": "transferOwnership",
      "outputs": [],
      "stateMutability": "nonpayable",
      "type": "function"
    },
    {
      "inputs": [],
      "name": "withdrawLink",
      "outputs": [],
      "stateMutability": "nonpayable",
      "type": "function"
    }
  ],
  "bytecode": "0x60a0604052600380546001600160a01b0319908116735c210ef41cd1a72de73bf76ec39637bb0d3d7bee1790915560048054909116730b9d5d9136855f6fec3c0993fee6e9ce8a2978461790557fc799bd1e3bd4d1a41cd4968997a4e03dfd2a3c7c04b695881138580163f4288760065534801561007c57600080fd5b506040516114b43803806114b483398101604081905261009b9161015c565b60035460016000556001600160a01b031633806100d257604051631e4fbdf760e01b81526000600482015260240160405180910390fd5b6100db8161010a565b506001600160a01b03908116608052600354600280546001600160a01b03191691909216179055600555610175565b600180546001600160a01b038381166001600160a01b0319831681179093556040519116919082907f8be0079c531659141344cd1fd0a4f28419497f9722a3daafe3b4186f6b6457e090600090a35050565b60006020828403121561016e57600080fd5b5051919050565b60805161131d610197600039600081816103250152610367015261131d6000f3fe6080604052600436106100e85760003560e01c80637255d7291161008a578063cb910bda11610059578063cb910bda146102a1578063efaa55a0146102ba578063f2fde38b146102cd578063f416a09f146102ed57600080fd5b80637255d7291461023c5780637fd6f7c4146102445780638da5cb5b146102645780638dc654a21461028c57600080fd5b80631fe543e3116100c65780631fe543e3146101c25780632e0be39a146101e457806370180bc1146101fa578063715018a61461022757600080fd5b80630386a7e0146100ed578063117a5b90146101195780631fa072db14610195575b600080fd5b3480156100f957600080fd5b50610106642e90edd00081565b6040519081526020015b60405180910390f35b34801561012557600080fd5b506101836101343660046110a8565b6007602052600090815260409020805460018201546002909201546001600160a01b03918216929182169160ff600160a01b8204811692600160a81b8304821692600160b01b90049091169086565b604051610110969594939291906110eb565b3480156101a157600080fd5b506101066101b03660046110a8565b600b6020526000908152604090205481565b3480156101ce57600080fd5b506101e26101dd366004611157565b61031a565b005b3480156101f057600080fd5b50610106600a5481565b34801561020657600080fd5b50610106610215366004611221565b60096020526000908152604090205481565b34801561023357600080fd5b506101e26103a7565b6101e26103bb565b34801561025057600080fd5b506101e261025f366004611251565b610595565b34801561027057600080fd5b506001546040516001600160a01b039091168152602001610110565b34801561029857600080fd5b506101e26108cf565b3480156102ad57600080fd5b5061010664174876e80081565b6101e26102c83660046110a8565b610a03565b3480156102d957600080fd5b506101e26102e8366004611221565b610bf8565b3480156102f957600080fd5b50610106610308366004611221565b60086020526000908152604090205481565b336001600160a01b037f000000000000000000000000000000000000000000000000000000000000000016146103995760405163073e64fd60e21b81523360048201526001600160a01b037f00000000000000000000000000000000000000000000000000000000000000001660248201526044015b60405180910390fd5b6103a38282610c33565b5050565b6103af610ccd565b6103b96000610cfa565b565b6103c3610d4c565b64174876e80034146104105760405162461bcd60e51b8152602060048201526016602482015275125b98dbdc9c9958dd081dd859d95c88185b5bdd5b9d60521b6044820152606401610390565b600a805490600061042083611285565b90915550506040805160c08101825233815260006020808301828152838501838152606085018490526080850184905260a08501849052600a548452600790925293909120825181546001600160a01b03199081166001600160a01b0392831617835594516001830180549687169190921690811782559251939491939290916001600160a81b03191617600160a01b8360038111156104c2576104c26110c1565b0217905550606082015160018201805460ff60a81b1916600160a81b8360038111156104f0576104f06110c1565b0217905550608082015160018201805460ff60b01b1916600160b01b83600281111561051e5761051e6110c1565b021790555060a0919091015160029091015533600090815260096020526040812080549161054b83611285565b9091555050600a54604080519182523360208301527fc3e0f84839dc888c892a013d10c8f9d6dc05a21a879d0ce468ca558013e9121c910160405180910390a16103b96001600055565b61059d610d4c565b600082815260076020526040902060018260038111156105bf576105bf6110c1565b101580156105df575060038260038111156105dc576105dc6110c1565b11155b61061a5760405162461bcd60e51b815260206004820152600c60248201526b496e76616c6964206d6f766560a01b6044820152606401610390565b60006001820154600160b01b900460ff16600281111561063c5761063c6110c1565b146106895760405162461bcd60e51b815260206004820152601760248201527f4d6f76657320616c7265616479207375626d69747465640000000000000000006044820152606401610390565b80546001600160a01b03163314806106ad575060018101546001600160a01b031633145b6106e85760405162461bcd60e51b815260206004820152600c60248201526b2737ba103090383630bcb2b960a11b6044820152606401610390565b80546001600160a01b0316330361078d5760006001820154600160a01b900460ff16600381111561071b5761071b6110c1565b1461075c5760405162461bcd60e51b81526020600482015260116024820152704d6f766520616c7265616479206d61646560781b6044820152606401610390565b60018101805483919060ff60a01b1916600160a01b836003811115610783576107836110c1565b021790555061081d565b60006001820154600160a81b900460ff1660038111156107af576107af6110c1565b146107f05760405162461bcd60e51b81526020600482015260116024820152704d6f766520616c7265616479206d61646560781b6044820152606401610390565b60018101805483919060ff60a81b1916600160a81b836003811115610817576108176110c1565b02179055505b60006001820154600160a01b900460ff16600381111561083f5761083f6110c1565b1415801561086d575060006001820154600160a81b900460ff16600381111561086a5761086a6110c1565b14155b156108c45760018101805460ff60b01b1916600160b01b17905561089083610d76565b6040518381527fd29757087cf857e5fb3178239b074d6cd96d3f64a5bb1f6c632eecbcba4a48c69060200160405180910390a15b506103a36001600055565b6108d7610ccd565b600480546040516370a0823160e01b815230928101929092526001600160a01b031690819063a9059cbb90339083906370a0823190602401602060405180830381865afa15801561092c573d6000803e3d6000fd5b505050506040513d601f19601f8201168201806040525081019061095091906112ac565b6040516001600160e01b031960e085901b1681526001600160a01b03909216600483015260248201526044016020604051808303816000875af115801561099b573d6000803e3d6000fd5b505050506040513d601f19601f820116820180604052508101906109bf91906112c5565b610a005760405162461bcd60e51b81526020600482015260126024820152712ab730b13632903a37903a3930b739b332b960711b6044820152606401610390565b50565b610a0b610d4c565b60008181526007602052604090203464174876e80014610a665760405162461bcd60e51b8152602060048201526016602482015275125b98dbdc9c9958dd081dd859d95c88185b5bdd5b9d60521b6044820152606401610390565b60006001820154600160b01b900460ff166002811115610a8857610a886110c1565b14610ac85760405162461bcd60e51b815260206004820152601060248201526f47616d65206e6f742070656e64696e6760801b6044820152606401610390565b80546001600160a01b031615801590610aec575060018101546001600160a01b0316155b610b2d5760405162461bcd60e51b8152602060048201526012602482015271496e76616c69642067616d6520737461746560701b6044820152606401610390565b8054336001600160a01b0390911603610b7f5760405162461bcd60e51b815260206004820152601460248201527343616e6e6f74206a6f696e206f776e2067616d6560601b6044820152606401610390565b6001810180546001600160a01b031916339081179091556000908152600960205260408120805491610bb083611285565b9091555050604080518381523360208201527f87969bc7faf902221a147b95ceba76e011c5efb0339a0a8ee7a2bb82d9cfbbd6910160405180910390a150610a006001600055565b610c00610ccd565b6001600160a01b038116610c2a57604051631e4fbdf760e01b815260006004820152602401610390565b610a0081610cfa565b6000828152600b60209081526040808320548084526007909252909120600180820154600160b01b900460ff166002811115610c7157610c716110c1565b14610cbe5760405162461bcd60e51b815260206004820152601d60248201527f47616d65206e6f7420726561647920666f72207265736f6c7574696f6e0000006044820152606401610390565b610cc782610e32565b50505050565b6001546001600160a01b031633146103b95760405163118cdaa760e01b8152336004820152602401610390565b600180546001600160a01b038381166001600160a01b0319831681179093556040519116919082907f8be0079c531659141344cd1fd0a4f28419497f9722a3daafe3b4186f6b6457e090600090a35050565b600260005403610d6f57604051633ee5aeb560e01b815260040160405180910390fd5b6002600055565b60025460065460055460405163d33d44c160e01b81526004810192909252602482015260036044820152620186a06064820152600160848201526000916001600160a01b03169063d33d44c19060a4016020604051808303816000875af1158015610de5573d6000803e3d6000fd5b505050506040513d601f19601f82011682018060405250810190610e0991906112ac565b6000818152600b6020908152604080832086905594825260079052929092206002019190915550565b600081815260076020526040812060018101805460ff60b01b198116600160b11b17918290558254929392610e899260ff600160a01b8204811693600160a81b90920416916001600160a01b039081169116610fbc565b90506001600160a01b038116610f155781546040516001600160a01b039091169060009064174876e8009082818181858883f19350505050158015610ed2573d6000803e3d6000fd5b5060018201546040516001600160a01b039091169060009064174876e8009082818181858883f19350505050158015610f0f573d6000803e3d6000fd5b50610f76565b6040516001600160a01b03821690600090642e90edd0009082818181858883f19350505050158015610f4b573d6000803e3d6000fd5b506001600160a01b0381166000908152600860205260408120805491610f7083611285565b91905055505b604080518481526001600160a01b03831660208201527fe1bef002fde33ebfa1c25a643ad667aa6dc80f7c8efb4b4161991251f8b4563a910160405180910390a1505050565b6000836003811115610fd057610fd06110c1565b856003811115610fe257610fe26110c1565b03610fef575060006110a0565b6001856003811115611003576110036110c1565b1480156110215750600384600381111561101f5761101f6110c1565b145b806110595750600285600381111561103b5761103b6110c1565b14801561105957506001846003811115611057576110576110c1565b145b8061109157506003856003811115611073576110736110c1565b1480156110915750600284600381111561108f5761108f6110c1565b145b1561109d5750816110a0565b50805b949350505050565b6000602082840312156110ba57600080fd5b5035919050565b634e487b7160e01b600052602160045260246000fd5b600481106110e7576110e76110c1565b9052565b6001600160a01b0387811682528616602082015260c0810161111060408301876110d7565b61111d60608301866110d7565b6003841061112d5761112d6110c1565b608082019390935260a00152949350505050565b634e487b7160e01b600052604160045260246000fd5b6000806040838503121561116a57600080fd5b8235915060208084013567ffffffffffffffff8082111561118a57600080fd5b818601915086601f83011261119e57600080fd5b8135818111156111b0576111b0611141565b8060051b604051601f19603f830116810181811085821117156111d5576111d5611141565b6040529182528482019250838101850191898311156111f357600080fd5b938501935b82851015611211578435845293850193928501926111f8565b8096505050505050509250929050565b60006020828403121561123357600080fd5b81356001600160a01b038116811461124a57600080fd5b9392505050565b6000806040838503121561126457600080fd5b8235915060208301356004811061127a57600080fd5b809150509250929050565b6000600182016112a557634e487b7160e01b600052601160045260246000fd5b5060010190565b6000602082840312156112be57600080fd5b5051919050565b6000602082840312156112d757600080fd5b8151801515811461124a57600080fdfea2646970667358221220b465f2fbe3cdfe7fbaffddb908d7de489195eabd4c76eb487921e7a5b9ff3ff464736f6c63430008140033",
  "linkReferences": {},
  "deployedLinkReferences": {}
}